{
  "contractName": "Voting",
  "abi": [
    {
      "inputs": [
        {
          "internalType": "string",
          "name": "_vT",
          "type": "string"
        },
        {
          "internalType": "uint256",
          "name": "_vID",
          "type": "uint256"
        },
        {
          "internalType": "uint256",
          "name": "_sT",
          "type": "uint256"
        },
        {
          "internalType": "uint256",
          "name": "_eT",
          "type": "uint256"
        },
        {
          "internalType": "uint256",
          "name": "E",
          "type": "uint256"
        },
        {
          "internalType": "bytes32",
          "name": "N",
          "type": "bytes32"
        },
        {
          "internalType": "string[]",
          "name": "_can",
          "type": "string[]"
        }
      ],
      "payable": false,
      "stateMutability": "nonpayable",
      "type": "constructor"
    },
    {
      "anonymous": false,
      "inputs": [
        {
          "indexed": false,
          "internalType": "uint256",
          "name": "val",
          "type": "uint256"
        }
      ],
      "name": "ValueSet",
      "type": "event"
    },
    {
      "constant": true,
      "inputs": [],
      "name": "owner",
      "outputs": [
        {
          "internalType": "address",
          "name": "",
          "type": "address"
        }
      ],
      "payable": false,
      "stateMutability": "view",
      "type": "function"
    },
    {
      "constant": true,
      "inputs": [],
      "name": "value",
      "outputs": [
        {
          "internalType": "uint256",
          "name": "",
          "type": "uint256"
        }
      ],
      "payable": false,
      "stateMutability": "view",
      "type": "function"
    },
    {
      "constant": false,
      "inputs": [
        {
          "internalType": "uint256",
          "name": "val",
          "type": "uint256"
        }
      ],
      "name": "setValue",
      "outputs": [],
      "payable": false,
      "stateMutability": "nonpayable",
      "type": "function"
    },
    {
      "constant": true,
      "inputs": [],
      "name": "getValue",
      "outputs": [
        {
          "internalType": "uint256",
          "name": "",
          "type": "uint256"
        }
      ],
      "payable": false,
      "stateMutability": "view",
      "type": "function"
    },
    {
      "constant": true,
      "inputs": [],
      "name": "getTime",
      "outputs": [
        {
          "internalType": "uint256",
          "name": "",
          "type": "uint256"
        },
        {
          "internalType": "uint256",
          "name": "",
          "type": "uint256"
        }
      ],
      "payable": false,
      "stateMutability": "view",
      "type": "function"
    },
    {
      "constant": true,
      "inputs": [],
      "name": "getKey",
      "outputs": [
        {
          "internalType": "uint256",
          "name": "",
          "type": "uint256"
        },
        {
          "internalType": "bytes32",
          "name": "",
          "type": "bytes32"
        }
      ],
      "payable": false,
      "stateMutability": "view",
      "type": "function"
    },
    {
      "constant": true,
      "inputs": [],
      "name": "getHash",
      "outputs": [
        {
          "internalType": "bytes32",
          "name": "",
          "type": "bytes32"
        },
        {
          "internalType": "bytes32",
          "name": "",
          "type": "bytes32"
        }
      ],
      "payable": false,
      "stateMutability": "view",
      "type": "function"
    },
    {
      "constant": false,
      "inputs": [
        {
          "internalType": "uint256",
          "name": "candidate",
          "type": "uint256"
        }
      ],
      "name": "vote",
      "outputs": [],
      "payable": false,
      "stateMutability": "nonpayable",
      "type": "function"
    },
    {
      "constant": false,
      "inputs": [
        {
          "internalType": "string",
          "name": "message",
          "type": "string"
        },
        {
          "internalType": "string",
          "name": "signedMessage",
          "type": "string"
        }
      ],
      "name": "verify",
      "outputs": [
        {
          "internalType": "bool",
          "name": "eligible",
          "type": "bool"
        }
      ],
      "payable": false,
      "stateMutability": "nonpayable",
      "type": "function"
    },
    {
      "constant": true,
      "inputs": [],
      "name": "collectVotes",
      "outputs": [
        {
          "internalType": "string",
          "name": "winningCandidates",
          "type": "string"
        }
      ],
      "payable": false,
      "stateMutability": "view",
      "type": "function"
    }
  ],
  "bytecode": "0x608060405260006009553480156200001657600080fd5b5060405162000f8a38038062000f8a83398181016040526200003c919081019062000410565b86600190805190602001906200005492919062000177565b50856002819055508460038190555083600481905550826005819055508160068190555060008090505b815181101562000129576008604051806060016040528060008152602001848481518110620000a957fe5b6020026020010151815260200183815250908060018154018082558091505090600182039060005260206000209060030201600090919290919091506000820151816000015560208201518160010190805190602001906200010d929190620001fe565b506040820151816002015550505080806001019150506200007e565b50336000806101000a81548173ffffffffffffffffffffffffffffffffffffffff021916908373ffffffffffffffffffffffffffffffffffffffff160217905550505050505050506200061e565b828054600181600116156101000203166002900490600052602060002090601f016020900481019282601f10620001ba57805160ff1916838001178555620001eb565b82800160010185558215620001eb579182015b82811115620001ea578251825591602001919060010190620001cd565b5b509050620001fa919062000285565b5090565b828054600181600116156101000203166002900490600052602060002090601f016020900481019282601f106200024157805160ff191683800117855562000272565b8280016001018555821562000272579182015b828111156200027157825182559160200191906001019062000254565b5b50905062000281919062000285565b5090565b620002aa91905b80821115620002a65760008160009055506001016200028c565b5090565b90565b600082601f830112620002bf57600080fd5b8151620002d6620002d0826200051d565b620004ef565b9150818183526020840193506020810190508360005b8381101562000320578151860162000305888262000341565b845260208401935060208301925050600181019050620002ec565b5050505092915050565b6000815190506200033b81620005ea565b92915050565b600082601f8301126200035357600080fd5b81516200036a620003648262000546565b620004ef565b915080825260208301602083018583830111156200038757600080fd5b62000394838284620005b4565b50505092915050565b600082601f830112620003af57600080fd5b8151620003c6620003c08262000573565b620004ef565b91508082526020830160208301858383011115620003e357600080fd5b620003f0838284620005b4565b50505092915050565b6000815190506200040a8162000604565b92915050565b600080600080600080600060e0888a0312156200042c57600080fd5b600088015167ffffffffffffffff8111156200044757600080fd5b620004558a828b016200039d565b9750506020620004688a828b01620003f9565b96505060406200047b8a828b01620003f9565b95505060606200048e8a828b01620003f9565b9450506080620004a18a828b01620003f9565b93505060a0620004b48a828b016200032a565b92505060c088015167ffffffffffffffff811115620004d257600080fd5b620004e08a828b01620002ad565b91505092959891949750929550565b6000604051905081810181811067ffffffffffffffff821117156200051357600080fd5b8060405250919050565b600067ffffffffffffffff8211156200053557600080fd5b602082029050602081019050919050565b600067ffffffffffffffff8211156200055e57600080fd5b601f19601f8301169050602081019050919050565b600067ffffffffffffffff8211156200058b57600080fd5b601f19601f8301169050602081019050919050565b6000819050919050565b6000819050919050565b60005b83811015620005d4578082015181840152602081019050620005b7565b83811115620005e4576000848401525b50505050565b620005f581620005a0565b81146200060157600080fd5b50565b6200060f81620005aa565b81146200061b57600080fd5b50565b61095c806200062e6000396000f3fe608060405234801561001057600080fd5b506004361061009e5760003560e01c8063557ed1ba11610066578063557ed1ba1461013557806382678dd6146101545780638da5cb5b146101735780639deb17f514610191578063d13319c4146101c15761009e565b80630121b93f146100a357806320965255146100bf5780633783ac1d146100dd5780633fa4f245146100fb5780635524107714610119575b600080fd5b6100bd60048036036100b891908101906105e5565b6101e0565b005b6100c7610254565b6040516100d49190610759565b60405180910390f35b6100e561025e565b6040516100f29190610737565b60405180910390f35b61010361038b565b6040516101109190610759565b60405180910390f35b610133600480360361012e91908101906105e5565b610391565b005b61013d6103dd565b60405161014b92919061079d565b60405180910390f35b61015c6103ee565b60405161016a929190610774565b60405180910390f35b61017b6103ff565b60405161018891906106d8565b60405180910390f35b6101ab60048036036101a69190810190610579565b610424565b6040516101b891906106f3565b60405180910390f35b6101c96104c1565b6040516101d792919061070e565b60405180910390f35b6000600760003373ffffffffffffffffffffffffffffffffffffffff1673ffffffffffffffffffffffffffffffffffffffff168152602001908152602001600020905060016008838154811061023257fe5b9060005260206000209060030201600001600082825401925050819055505050565b6000600954905090565b6060600080905060008090505b60088054905081101561038657816008828154811061028657fe5b906000526020600020906003020160000154111561037957600881815481106102ab57fe5b9060005260206000209060030201600001549150600881815481106102cc57fe5b90600052602060002090600302016001018054600181600116156101000203166002900480601f0160208091040260200160405190810160405280929190818152602001828054600181600116156101000203166002900480156103715780601f1061034657610100808354040283529160200191610371565b820191906000526020600020905b81548152906001019060200180831161035457829003601f168201915b505050505092505b808060010191505061026b565b505090565b60095481565b806009600082825401925050819055507f012c78e2b84325878b1bd9d250d772cfe5bda7722d795f45036fa5e1e6e303fc6009546040516103d29190610759565b60405180910390a150565b600080600354600454915091509091565b600080600554600654915091509091565b6000809054906101000a900473ffffffffffffffffffffffffffffffffffffffff1681565b60006002604051610434906106c3565b602060405180830381855afa158015610451573d6000803e3d6000fd5b5050506040513d601f19601f820116820180604052506104749190810190610550565b600a81905550600060065460001c8061048957fe5b600554600a5460001c0990508060001b600b81905550600a548160001b14156104b557600191506104ba565b600091505b5092915050565b600080600a54600b54915091509091565b6000815190506104e1816108eb565b92915050565b600082601f8301126104f857600080fd5b813561050b610506826107f3565b6107c6565b9150808252602083016020830185838301111561052757600080fd5b610532838284610898565b50505092915050565b60008135905061054a81610902565b92915050565b60006020828403121561056257600080fd5b6000610570848285016104d2565b91505092915050565b6000806040838503121561058c57600080fd5b600083013567ffffffffffffffff8111156105a657600080fd5b6105b2858286016104e7565b925050602083013567ffffffffffffffff8111156105cf57600080fd5b6105db858286016104e7565b9150509250929050565b6000602082840312156105f757600080fd5b60006106058482850161053b565b91505092915050565b61061781610846565b82525050565b61062681610858565b82525050565b61063581610864565b82525050565b60006106468261081f565b6106508185610835565b93506106608185602086016108a7565b610669816108da565b840191505092915050565b600061068160088361082a565b91507f54495736333733310000000000000000000000000000000000000000000000006000830152600882019050919050565b6106bd8161088e565b82525050565b60006106ce82610674565b9150819050919050565b60006020820190506106ed600083018461060e565b92915050565b6000602082019050610708600083018461061d565b92915050565b6000604082019050610723600083018561062c565b610730602083018461062c565b9392505050565b60006020820190508181036000830152610751818461063b565b905092915050565b600060208201905061076e60008301846106b4565b92915050565b600060408201905061078960008301856106b4565b610796602083018461062c565b9392505050565b60006040820190506107b260008301856106b4565b6107bf60208301846106b4565b9392505050565b6000604051905081810181811067ffffffffffffffff821117156107e957600080fd5b8060405250919050565b600067ffffffffffffffff82111561080a57600080fd5b601f19601f8301169050602081019050919050565b600081519050919050565b600081905092915050565b600082825260208201905092915050565b60006108518261086e565b9050919050565b60008115159050919050565b6000819050919050565b600073ffffffffffffffffffffffffffffffffffffffff82169050919050565b6000819050919050565b82818337600083830152505050565b60005b838110156108c55780820151818401526020810190506108aa565b838111156108d4576000848401525b50505050565b6000601f19601f8301169050919050565b6108f481610864565b81146108ff57600080fd5b50565b61090b8161088e565b811461091657600080fd5b5056fea365627a7a723158204aa0282d74a552a89fe2c1e34700e03ae77e100a2fab4c8ff066d0620d72a5686c6578706572696d656e74616cf564736f6c634300050c0040",
  "source": "pragma solidity >=0.4.25;\npragma experimental ABIEncoderV2;\n\ncontract Voting {\n    struct Voter {\n        uint id; // voter's id\n        bool voted; // whether the voter has voted or not\n        uint candidate; // the candidate that the voter votes for\n    }\n\n    struct Candidate {\n        uint count;\n        string name;\n        uint id;\n    }\n    address public owner;\n    string votingTitle;\n    uint votingID;\n    uint startTime;\n    uint endTime;\n    uint publicKeyE;\n    bytes32 publicKeyN;\n    mapping (address => Voter) voters; // eligible voters\n    Candidate[] candidates; // eligible candidates\n    uint public value = 0;\n    bytes32 msgHash;\n    bytes32 verifyHash;\n    event ValueSet(uint val);\n    function setValue(uint val) public {\n        value += val;\n        emit ValueSet(value);\n    }\n    function getValue() public view returns (uint) {\n        return value;\n    }\n    function getTime() public view returns (uint, uint) {\n        return (startTime, endTime);\n    }\n    function getKey() public view returns (uint, bytes32) {\n        return (publicKeyE, publicKeyN);\n    }\n    function getHash() public view returns(bytes32, bytes32){\n        return (msgHash, verifyHash);\n    }\n\n    constructor (string memory _vT, uint _vID, uint _sT, uint _eT, uint E, bytes32 N, string[] memory _can) public {\n        votingTitle = _vT;\n        votingID = _vID;\n        startTime = _sT;\n        endTime = _eT;\n        publicKeyE = E;\n        publicKeyN = N;\n        for (uint j = 0; j < _can.length; j++) {\n            candidates.push(Candidate({\n                count: 0,\n                name: _can[j],\n                id: j\n            }));\n        }\n        owner = msg.sender;\n    }\n\n    function vote (uint candidate) public {\n        Voter storage sender = voters[msg.sender];\n        //require(verify(), \"Signature is wrong.\");\n        //require(!sender.voted, \"Sender has been voted.\");\n        //sender.voted = true;\n        //sender.candidate = candidate;\n        candidates[candidate].count += 1;\n\n    }\n\n    function verify (string memory message, string memory signedMessage) public returns (bool eligible) {\n        msgHash = sha256(\"TIW63731\");\n        //rsaverify(msgHash, publicKeyN, publicKeyE, );\n        uint result = mulmod(uint(msgHash), publicKeyE, uint(publicKeyN));\n        verifyHash = bytes32(result);\n        if (bytes32(result) == msgHash) eligible = true;\n        else eligible = false;\n    }\n\n    function checkTime () private view returns (bool) {\n        if (now > endTime || now < startTime) return false;\n        else return true;\n    }\n\n    function checkVotingID (uint ballotID) private view returns (bool) {\n        if (ballotID != votingID) return false;\n        else return true;\n    }\n\n    function collectVotes () public view returns (string memory winningCandidates) {\n        //require(now > endTime );\n        uint winningCount = 0;\n        for (uint i = 0; i < candidates.length; i++) {\n            if (candidates[i].count > winningCount) {\n                winningCount = candidates[i].count;\n                winningCandidates = candidates[i].name;\n            }\n        }\n    }\n}\n",
  "sourcePath": "/Users/aeiou335/Desktop/csie/crypto/smartvoting2/Vote/contracts/Voting.sol",
  "compiler": {
    "name": "solc",
    "version": "0.5.12+commit.7709ece9.Emscripten.clang"
  },
  "schemaVersion": "3.0.19",
  "updatedAt": "2020-01-12T12:35:35.143Z",
  "networkType": "ethereum",
  "devdoc": {
    "methods": {}
  },
  "userdoc": {
    "methods": {}
  }
}