{
  "contractName": "Voting",
  "abi": [
    {
      "anonymous": false,
      "inputs": [
        {
          "indexed": false,
          "internalType": "uint256",
          "name": "val",
          "type": "uint256"
        }
      ],
      "name": "ValueSet",
      "type": "event"
    },
    {
      "constant": true,
      "inputs": [],
      "name": "owner",
      "outputs": [
        {
          "internalType": "address",
          "name": "",
          "type": "address"
        }
      ],
      "payable": false,
      "stateMutability": "view",
      "type": "function"
    },
    {
      "constant": true,
      "inputs": [],
      "name": "value",
      "outputs": [
        {
          "internalType": "uint256",
          "name": "",
          "type": "uint256"
        }
      ],
      "payable": false,
      "stateMutability": "view",
      "type": "function"
    },
    {
      "constant": false,
      "inputs": [
        {
          "internalType": "uint256",
          "name": "val",
          "type": "uint256"
        }
      ],
      "name": "setValue",
      "outputs": [],
      "payable": false,
      "stateMutability": "nonpayable",
      "type": "function"
    },
    {
      "constant": true,
      "inputs": [],
      "name": "getValue",
      "outputs": [
        {
          "internalType": "uint256",
          "name": "",
          "type": "uint256"
        }
      ],
      "payable": false,
      "stateMutability": "view",
      "type": "function"
    },
    {
      "constant": false,
      "inputs": [
        {
          "internalType": "string",
          "name": "_vT",
          "type": "string"
        },
        {
          "internalType": "uint256",
          "name": "_vID",
          "type": "uint256"
        },
        {
          "internalType": "uint256",
          "name": "_sT",
          "type": "uint256"
        },
        {
          "internalType": "uint256",
          "name": "_eT",
          "type": "uint256"
        },
        {
          "internalType": "uint256",
          "name": "E",
          "type": "uint256"
        },
        {
          "internalType": "uint256",
          "name": "N",
          "type": "uint256"
        },
        {
          "internalType": "address[]",
          "name": "_vAddr",
          "type": "address[]"
        },
        {
          "internalType": "string[]",
          "name": "_can",
          "type": "string[]"
        }
      ],
      "name": "create",
      "outputs": [],
      "payable": false,
      "stateMutability": "nonpayable",
      "type": "function"
    },
    {
      "constant": false,
      "inputs": [
        {
          "internalType": "uint256",
          "name": "candidate",
          "type": "uint256"
        }
      ],
      "name": "vote",
      "outputs": [],
      "payable": false,
      "stateMutability": "nonpayable",
      "type": "function"
    },
    {
      "constant": true,
      "inputs": [],
      "name": "collectVotes",
      "outputs": [
        {
          "internalType": "string",
          "name": "winningCandidates",
          "type": "string"
        }
      ],
      "payable": false,
      "stateMutability": "view",
      "type": "function"
    }
  ],
  "bytecode": "0x6080604052600060095534801561001557600080fd5b50610dc2806100256000396000f3fe608060405234801561001057600080fd5b506004361061007d5760003560e01c80633fa4f2451161005b5780633fa4f245146100da5780634b7103d0146100f857806355241077146101145780638da5cb5b146101305761007d565b80630121b93f14610082578063209652551461009e5780633783ac1d146100bc575b600080fd5b61009c60048036036100979190810190610a39565b61014e565b005b6100a6610281565b6040516100b39190610bb6565b60405180910390f35b6100c461028b565b6040516100d19190610b54565b60405180910390f35b6100e26103b8565b6040516100ef9190610bb6565b60405180910390f35b610112600480360361010d919081019061093f565b6103be565b005b61012e60048036036101299190810190610a39565b6105d7565b005b610138610623565b6040516101459190610b39565b60405180910390f35b6000600760003373ffffffffffffffffffffffffffffffffffffffff1673ffffffffffffffffffffffffffffffffffffffff1681526020019081526020016000209050610199610648565b6101d8576040517f08c379a00000000000000000000000000000000000000000000000000000000081526004016101cf90610b76565b60405180910390fd5b8060010160009054906101000a900460ff161561022a576040517f08c379a000000000000000000000000000000000000000000000000000000000815260040161022190610b96565b60405180910390fd5b60018160010160006101000a81548160ff02191690831515021790555081816002018190555060016008838154811061025f57fe5b9060005260206000209060030201600001600082825401925050819055505050565b6000600954905090565b6060600080905060008090505b6008805490508110156103b35781600882815481106102b357fe5b90600052602060002090600302016000015411156103a657600881815481106102d857fe5b9060005260206000209060030201600001549150600881815481106102f957fe5b90600052602060002090600302016001018054600181600116156101000203166002900480601f01602080910402602001604051908101604052809291908181526020018280546001816001161561010002031660029004801561039e5780601f106103735761010080835404028352916020019161039e565b820191906000526020600020905b81548152906001019060200180831161038157829003601f168201915b505050505092505b8080600101915050610298565b505090565b60095481565b87600190805190602001906103d4929190610651565b50866002819055508560038190555084600481905550836005819055508260068190555060008090505b82518110156104df57600181016007600085848151811061041b57fe5b602002602001015173ffffffffffffffffffffffffffffffffffffffff1673ffffffffffffffffffffffffffffffffffffffff1681526020019081526020016000206000018190555060016007600085848151811061047657fe5b602002602001015173ffffffffffffffffffffffffffffffffffffffff1673ffffffffffffffffffffffffffffffffffffffff16815260200190815260200160002060010160006101000a81548160ff02191690831515021790555080806001019150506103fe565b5060008090505b815181101561058c57600860405180606001604052806000815260200184848151811061050f57fe5b6020026020010151815260200183815250908060018154018082558091505090600182039060005260206000209060030201600090919290919091506000820151816000015560208201518160010190805190602001906105719291906106d1565b506040820151816002015550505080806001019150506104e6565b50336000806101000a81548173ffffffffffffffffffffffffffffffffffffffff021916908373ffffffffffffffffffffffffffffffffffffffff1602179055505050505050505050565b806009600082825401925050819055507f012c78e2b84325878b1bd9d250d772cfe5bda7722d795f45036fa5e1e6e303fc6009546040516106189190610bb6565b60405180910390a150565b6000809054906101000a900473ffffffffffffffffffffffffffffffffffffffff1681565b60006001905090565b828054600181600116156101000203166002900490600052602060002090601f016020900481019282601f1061069257805160ff19168380011785556106c0565b828001600101855582156106c0579182015b828111156106bf5782518255916020019190600101906106a4565b5b5090506106cd9190610751565b5090565b828054600181600116156101000203166002900490600052602060002090601f016020900481019282601f1061071257805160ff1916838001178555610740565b82800160010185558215610740579182015b8281111561073f578251825591602001919060010190610724565b5b50905061074d9190610751565b5090565b61077391905b8082111561076f576000816000905550600101610757565b5090565b90565b60008135905061078581610d51565b92915050565b600082601f83011261079c57600080fd5b81356107af6107aa82610bfe565b610bd1565b915081818352602084019350602081019050838560208402820111156107d457600080fd5b60005b8381101561080457816107ea8882610776565b8452602084019350602083019250506001810190506107d7565b5050505092915050565b600082601f83011261081f57600080fd5b813561083261082d82610c26565b610bd1565b9150818183526020840193506020810190508360005b83811015610878578135860161085e8882610882565b845260208401935060208301925050600181019050610848565b5050505092915050565b600082601f83011261089357600080fd5b81356108a66108a182610c4e565b610bd1565b915080825260208301602083018583830111156108c257600080fd5b6108cd838284610cfe565b50505092915050565b600082601f8301126108e757600080fd5b81356108fa6108f582610c7a565b610bd1565b9150808252602083016020830185838301111561091657600080fd5b610921838284610cfe565b50505092915050565b60008135905061093981610d68565b92915050565b600080600080600080600080610100898b03121561095c57600080fd5b600089013567ffffffffffffffff81111561097657600080fd5b6109828b828c016108d6565b98505060206109938b828c0161092a565b97505060406109a48b828c0161092a565b96505060606109b58b828c0161092a565b95505060806109c68b828c0161092a565b94505060a06109d78b828c0161092a565b93505060c089013567ffffffffffffffff8111156109f457600080fd5b610a008b828c0161078b565b92505060e089013567ffffffffffffffff811115610a1d57600080fd5b610a298b828c0161080e565b9150509295985092959890939650565b600060208284031215610a4b57600080fd5b6000610a598482850161092a565b91505092915050565b610a6b81610cc2565b82525050565b6000610a7c82610ca6565b610a868185610cb1565b9350610a96818560208601610d0d565b610a9f81610d40565b840191505092915050565b6000610ab7601383610cb1565b91507f5369676e61747572652069732077726f6e672e000000000000000000000000006000830152602082019050919050565b6000610af7601683610cb1565b91507f53656e64657220686173206265656e20766f7465642e000000000000000000006000830152602082019050919050565b610b3381610cf4565b82525050565b6000602082019050610b4e6000830184610a62565b92915050565b60006020820190508181036000830152610b6e8184610a71565b905092915050565b60006020820190508181036000830152610b8f81610aaa565b9050919050565b60006020820190508181036000830152610baf81610aea565b9050919050565b6000602082019050610bcb6000830184610b2a565b92915050565b6000604051905081810181811067ffffffffffffffff82111715610bf457600080fd5b8060405250919050565b600067ffffffffffffffff821115610c1557600080fd5b602082029050602081019050919050565b600067ffffffffffffffff821115610c3d57600080fd5b602082029050602081019050919050565b600067ffffffffffffffff821115610c6557600080fd5b601f19601f8301169050602081019050919050565b600067ffffffffffffffff821115610c9157600080fd5b601f19601f8301169050602081019050919050565b600081519050919050565b600082825260208201905092915050565b6000610ccd82610cd4565b9050919050565b600073ffffffffffffffffffffffffffffffffffffffff82169050919050565b6000819050919050565b82818337600083830152505050565b60005b83811015610d2b578082015181840152602081019050610d10565b83811115610d3a576000848401525b50505050565b6000601f19601f8301169050919050565b610d5a81610cc2565b8114610d6557600080fd5b50565b610d7181610cf4565b8114610d7c57600080fd5b5056fea365627a7a723158201e3e2856a717a52da741b8d7859a8c15fbd7055e06ba61b418587e953fafb3d76c6578706572696d656e74616cf564736f6c634300050c0040",
  "source": "pragma solidity >=0.4.24;\r\npragma experimental ABIEncoderV2;\r\n\r\ncontract Voting {\r\n    struct Voter {\r\n        uint id; // voter's id\r\n        bool voted; // whether the voter has voted or not\r\n        uint candidate; // the candidate that the voter votes for\r\n    }\r\n\r\n    struct Candidate {\r\n        uint count;\r\n        string name;\r\n        uint id;\r\n    }\r\n    address public owner;\r\n    string votingTitle;\r\n    uint votingID;\r\n    uint startTime;\r\n    uint endTime;\r\n    uint publicKeyE;\r\n    uint publicKeyN; \r\n    mapping (address => Voter) voters; // eligible voters\r\n    Candidate[] candidates; // eligible candidates\r\n    uint public value = 0;\r\n    event ValueSet(uint val);\r\n    function setValue(uint val) public {\r\n        value += val;\r\n        emit ValueSet(value);\r\n    }\r\n    function getValue() public view returns (uint) {\r\n        return value;\r\n    }\r\n\r\n    function create(string memory _vT, uint _vID, uint _sT, uint _eT, uint E, uint N, address[] memory _vAddr, string[] memory _can) public {\r\n        votingTitle = _vT;\r\n        votingID = _vID;\r\n        startTime = _sT;\r\n        endTime = _eT;\r\n        publicKeyE = E;\r\n        publicKeyN = N;\r\n        for (uint i = 0; i<_vAddr.length; i++) {\r\n            voters[_vAddr[i]].id = i+1;\r\n            voters[_vAddr[i]].voted = true;\r\n        }\r\n\r\n        for (uint i = 0; i < _can.length; i++) {\r\n            candidates.push(Candidate({\r\n                count: 0,\r\n                name: _can[i],\r\n                id: i\r\n            }));\r\n        }\r\n        owner = msg.sender;\r\n    }\r\n\r\n    function vote (uint candidate) public {\r\n        Voter storage sender = voters[msg.sender];\r\n        require(verify(), \"Signature is wrong.\");\r\n        require(!sender.voted, \"Sender has been voted.\");\r\n        sender.voted = true;\r\n        sender.candidate = candidate;\r\n        candidates[candidate].count += 1;\r\n\r\n    }\r\n\r\n    function verify () private returns (bool eligible) {\r\n        eligible = true;\r\n    }\r\n\r\n    function checkTime () private view returns (bool) {\r\n        if (now > endTime || now < startTime) return false;\r\n        else return true;\r\n    }\r\n\r\n    function checkVotingID (uint ballotID) private view returns (bool) {\r\n        if (ballotID != votingID) return false;\r\n        else return true;\r\n    }\r\n\r\n    function checkVoter (address _voterAddr) private view returns (bool) {\r\n        if (voters[_voterAddr].id == 0) return false;\r\n        else return true;\r\n    }\r\n\r\n    function collectVotes () public view returns (string memory winningCandidates) {\r\n        //require(now > endTime );\r\n        uint winningCount = 0;\r\n        for (uint i = 0; i < candidates.length; i++) {\r\n            if (candidates[i].count > winningCount) {\r\n                winningCount = candidates[i].count;\r\n                winningCandidates = candidates[i].name;\r\n            }\r\n        }\r\n    }\r\n}",
  "sourcePath": "C:/Users/Jason/Desktop/blockchain/smartvoting2/Vote/contracts/Voting.sol",
  "compiler": {
    "name": "solc",
    "version": "0.5.12+commit.7709ece9.Emscripten.clang"
  },
  "schemaVersion": "3.0.19",
  "updatedAt": "2020-01-10T07:35:23.596Z",
  "devdoc": {
    "methods": {}
  },
  "userdoc": {
    "methods": {}
  }
}