{
  "contractName": "Voting",
  "abi": [
    {
      "constant": true,
      "inputs": [],
      "name": "owner",
      "outputs": [
        {
          "internalType": "address",
          "name": "",
          "type": "address"
        }
      ],
      "payable": false,
      "stateMutability": "view",
      "type": "function"
    },
    {
      "constant": false,
      "inputs": [
        {
          "internalType": "string",
          "name": "_vT",
          "type": "string"
        },
        {
          "internalType": "uint256",
          "name": "_vID",
          "type": "uint256"
        },
        {
          "internalType": "uint256",
          "name": "_sT",
          "type": "uint256"
        },
        {
          "internalType": "uint256",
          "name": "_eT",
          "type": "uint256"
        },
        {
          "internalType": "bytes32",
          "name": "_pK",
          "type": "bytes32"
        },
        {
          "internalType": "address[]",
          "name": "_vAddr",
          "type": "address[]"
        },
        {
          "internalType": "bytes32[]",
          "name": "_can",
          "type": "bytes32[]"
        }
      ],
      "name": "create",
      "outputs": [],
      "payable": false,
      "stateMutability": "nonpayable",
      "type": "function"
    },
    {
      "constant": false,
      "inputs": [
        {
          "internalType": "uint256",
          "name": "candidate",
          "type": "uint256"
        }
      ],
      "name": "vote",
      "outputs": [],
      "payable": false,
      "stateMutability": "nonpayable",
      "type": "function"
    },
    {
      "constant": true,
      "inputs": [],
      "name": "collectVotes",
      "outputs": [
        {
          "internalType": "bytes32",
          "name": "winningCandidates",
          "type": "bytes32"
        }
      ],
      "payable": false,
      "stateMutability": "view",
      "type": "function"
    }
  ],
  "bytecode": "0x608060405234801561001057600080fd5b50610823806100206000396000f3fe608060405234801561001057600080fd5b506004361061004c5760003560e01c80630121b93f146100515780633783ac1d1461007f5780638da5cb5b1461009d5780639bcd026d146100e7575b600080fd5b61007d6004803603602081101561006757600080fd5b81019080803590602001909291905050506102f2565b005b61008761048b565b6040518082815260200191505060405180910390f35b6100a5610520565b604051808273ffffffffffffffffffffffffffffffffffffffff1673ffffffffffffffffffffffffffffffffffffffff16815260200191505060405180910390f35b6102f0600480360360e08110156100fd57600080fd5b810190808035906020019064010000000081111561011a57600080fd5b82018360208201111561012c57600080fd5b8035906020019184600183028401116401000000008311171561014e57600080fd5b91908080601f016020809104026020016040519081016040528093929190818152602001838380828437600081840152601f19601f82011690508083019250505050505050919291929080359060200190929190803590602001909291908035906020019092919080359060200190929190803590602001906401000000008111156101d957600080fd5b8201836020820111156101eb57600080fd5b8035906020019184602083028401116401000000008311171561020d57600080fd5b919080806020026020016040519081016040528093929190818152602001838360200280828437600081840152601f19601f8201169050808301925050505050505091929192908035906020019064010000000081111561026d57600080fd5b82018360208201111561027f57600080fd5b803590602001918460208302840111640100000000831117156102a157600080fd5b919080806020026020016040519081016040528093929190818152602001838360200280828437600081840152601f19601f820116905080830192505050505050509192919290505050610545565b005b6000600660003373ffffffffffffffffffffffffffffffffffffffff1673ffffffffffffffffffffffffffffffffffffffff168152602001908152602001600020905061033d610740565b6103af576040517f08c379a00000000000000000000000000000000000000000000000000000000081526004018080602001828103825260138152602001807f5369676e61747572652069732077726f6e672e0000000000000000000000000081525060200191505060405180910390fd5b8060010160009054906101000a900460ff1615610434576040517f08c379a00000000000000000000000000000000000000000000000000000000081526004018080602001828103825260168152602001807f53656e64657220686173206265656e20766f7465642e0000000000000000000081525060200191505060405180910390fd5b60018160010160006101000a81548160ff02191690831515021790555081816002018190555060016007838154811061046957fe5b9060005260206000209060030201600001600082825401925050819055505050565b6000806000905060008090505b60078054905081101561051b5781600782815481106104b357fe5b906000526020600020906003020160000154111561050e57600781815481106104d857fe5b9060005260206000209060030201600001549150600781815481106104f957fe5b90600052602060002090600302016001015492505b8080600101915050610498565b505090565b6000809054906101000a900473ffffffffffffffffffffffffffffffffffffffff1681565b866001908051906020019061055b929190610749565b508560028190555084600381905550836004819055508260058190555060008090505b825181101561065c57806006600085848151811061059857fe5b602002602001015173ffffffffffffffffffffffffffffffffffffffff1673ffffffffffffffffffffffffffffffffffffffff168152602001908152602001600020600001819055506000600660008584815181106105f357fe5b602002602001015173ffffffffffffffffffffffffffffffffffffffff1673ffffffffffffffffffffffffffffffffffffffff16815260200190815260200160002060010160006101000a81548160ff021916908315150217905550808060010191505061057e565b5060008090505b81518110156106f657600760405180606001604052806000815260200184848151811061068c57fe5b6020026020010151815260200183815250908060018154018082558091505090600182039060005260206000209060030201600090919290919091506000820151816000015560208201518160010155604082015181600201555050508080600101915050610663565b50336000806101000a81548173ffffffffffffffffffffffffffffffffffffffff021916908373ffffffffffffffffffffffffffffffffffffffff16021790555050505050505050565b60006001905090565b828054600181600116156101000203166002900490600052602060002090601f016020900481019282601f1061078a57805160ff19168380011785556107b8565b828001600101855582156107b8579182015b828111156107b757825182559160200191906001019061079c565b5b5090506107c591906107c9565b5090565b6107eb91905b808211156107e75760008160009055506001016107cf565b5090565b9056fea265627a7a7231582037f1e1ff91db6d543e4a371af73d92bb79f2303ac8425e862e39ab88f027b67664736f6c634300050c0032",
  "source": "pragma solidity >=0.4.21;\n\ncontract Voting {\n    struct Voter {\n        uint id; // voter's id\n        bool voted; // whether the voter has voted or not\n        uint candidate; // the candidate that the voter votes for\n    }\n\n    struct Candidate {\n        uint count;\n        bytes32 name;\n        uint id;\n    }\n    address public owner;\n    string votingTitle;\n    uint votingID;\n    uint startTime;\n    uint endTime;\n    bytes32 publicKey;\n    mapping (address => Voter) voters; // eligible voters\n    Candidate[] candidates; // eligible candidates\n\n    function create(string memory _vT, uint _vID, uint _sT, uint _eT, bytes32 _pK, address[] memory _vAddr, bytes32[] memory _can) public {\n        votingTitle = _vT;\n        votingID = _vID;\n        startTime = _sT;\n        endTime = _eT;\n        publicKey = _pK;\n        for (uint i = 0; i<_vAddr.length; i++) {\n            voters[_vAddr[i]].id = i;\n            voters[_vAddr[i]].voted = false;\n        }\n\n        for (uint i = 0; i < _can.length; i++) {\n            candidates.push(Candidate({\n                count: 0,\n                name: _can[i],\n                id: i\n            }));\n        }\n        owner = msg.sender;\n    }\n\n    function vote (uint candidate) public {\n        Voter storage sender = voters[msg.sender];\n        require(verify(), \"Signature is wrong.\");\n        require(!sender.voted, \"Sender has been voted.\");\n        sender.voted = true;\n        sender.candidate = candidate;\n        candidates[candidate].count += 1;\n\n    }\n\n    function verify () private returns (bool eligible) {\n        eligible = true;\n    }\n\n    function collectVotes () public view returns (bytes32 winningCandidates) {\n        //require(now > endTime );\n        uint winningCount = 0;\n        for (uint i = 0; i < candidates.length; i++) {\n            if (candidates[i].count > winningCount) {\n                winningCount = candidates[i].count;\n                winningCandidates = candidates[i].name;\n            }\n        }\n    }\n}",
  "sourcePath": "/Users/aeiou335/Desktop/csie/crypto/smartvoting2/Vote/contracts/Voting.sol",
  "compiler": {
    "name": "solc",
    "version": "0.5.12+commit.7709ece9.Emscripten.clang"
  },
  "schemaVersion": "3.0.19",
  "updatedAt": "2019-12-15T23:07:14.655Z",
  "devdoc": {
    "methods": {}
  },
  "userdoc": {
    "methods": {}
  }
}