{
  "contractName": "Voting",
  "abi": [
    {
      "inputs": [
        {
          "internalType": "string",
          "name": "_vT",
          "type": "string"
        },
        {
          "internalType": "uint256",
          "name": "_vID",
          "type": "uint256"
        },
        {
          "internalType": "uint256",
          "name": "_sT",
          "type": "uint256"
        },
        {
          "internalType": "uint256",
          "name": "_eT",
          "type": "uint256"
        },
        {
          "internalType": "uint256",
          "name": "E",
          "type": "uint256"
        },
        {
          "internalType": "uint256",
          "name": "N",
          "type": "uint256"
        },
        {
          "internalType": "string[]",
          "name": "_can",
          "type": "string[]"
        }
      ],
      "payable": false,
      "stateMutability": "nonpayable",
      "type": "constructor"
    },
    {
      "anonymous": false,
      "inputs": [
        {
          "indexed": false,
          "internalType": "uint256",
          "name": "val",
          "type": "uint256"
        }
      ],
      "name": "ValueSet",
      "type": "event"
    },
    {
      "constant": true,
      "inputs": [],
      "name": "owner",
      "outputs": [
        {
          "internalType": "address",
          "name": "",
          "type": "address"
        }
      ],
      "payable": false,
      "stateMutability": "view",
      "type": "function"
    },
    {
      "constant": true,
      "inputs": [],
      "name": "value",
      "outputs": [
        {
          "internalType": "uint256",
          "name": "",
          "type": "uint256"
        }
      ],
      "payable": false,
      "stateMutability": "view",
      "type": "function"
    },
    {
      "constant": false,
      "inputs": [
        {
          "internalType": "uint256",
          "name": "val",
          "type": "uint256"
        }
      ],
      "name": "setValue",
      "outputs": [],
      "payable": false,
      "stateMutability": "nonpayable",
      "type": "function"
    },
    {
      "constant": true,
      "inputs": [],
      "name": "getValue",
      "outputs": [
        {
          "internalType": "uint256",
          "name": "",
          "type": "uint256"
        }
      ],
      "payable": false,
      "stateMutability": "view",
      "type": "function"
    },
    {
      "constant": true,
      "inputs": [],
      "name": "getTime",
      "outputs": [
        {
          "internalType": "uint256",
          "name": "",
          "type": "uint256"
        },
        {
          "internalType": "uint256",
          "name": "",
          "type": "uint256"
        }
      ],
      "payable": false,
      "stateMutability": "view",
      "type": "function"
    },
    {
      "constant": true,
      "inputs": [],
      "name": "getKey",
      "outputs": [
        {
          "internalType": "uint256",
          "name": "",
          "type": "uint256"
        },
        {
          "internalType": "uint256",
          "name": "",
          "type": "uint256"
        }
      ],
      "payable": false,
      "stateMutability": "view",
      "type": "function"
    },
    {
      "constant": false,
      "inputs": [
        {
          "internalType": "uint256",
          "name": "candidate",
          "type": "uint256"
        }
      ],
      "name": "vote",
      "outputs": [],
      "payable": false,
      "stateMutability": "nonpayable",
      "type": "function"
    },
    {
      "constant": true,
      "inputs": [],
      "name": "collectVotes",
      "outputs": [
        {
          "internalType": "string",
          "name": "winningCandidates",
          "type": "string"
        }
      ],
      "payable": false,
      "stateMutability": "view",
      "type": "function"
    }
  ],
  "bytecode": "0x608060405260006009553480156200001657600080fd5b5060405162000c6e38038062000c6e83398181016040526200003c9190810190620003f9565b86600190805190602001906200005492919062000177565b50856002819055508460038190555083600481905550826005819055508160068190555060008090505b815181101562000129576008604051806060016040528060008152602001848481518110620000a957fe5b6020026020010151815260200183815250908060018154018082558091505090600182039060005260206000209060030201600090919290919091506000820151816000015560208201518160010190805190602001906200010d929190620001fe565b506040820151816002015550505080806001019150506200007e565b50336000806101000a81548173ffffffffffffffffffffffffffffffffffffffff021916908373ffffffffffffffffffffffffffffffffffffffff16021790555050505050505050620005e3565b828054600181600116156101000203166002900490600052602060002090601f016020900481019282601f10620001ba57805160ff1916838001178555620001eb565b82800160010185558215620001eb579182015b82811115620001ea578251825591602001919060010190620001cd565b5b509050620001fa919062000285565b5090565b828054600181600116156101000203166002900490600052602060002090601f016020900481019282601f106200024157805160ff191683800117855562000272565b8280016001018555821562000272579182015b828111156200027157825182559160200191906001019062000254565b5b50905062000281919062000285565b5090565b620002aa91905b80821115620002a65760008160009055506001016200028c565b5090565b90565b600082601f830112620002bf57600080fd5b8151620002d6620002d08262000506565b620004d8565b9150818183526020840193506020810190508360005b838110156200032057815186016200030588826200032a565b845260208401935060208301925050600181019050620002ec565b5050505092915050565b600082601f8301126200033c57600080fd5b8151620003536200034d826200052f565b620004d8565b915080825260208301602083018583830111156200037057600080fd5b6200037d83828462000593565b50505092915050565b600082601f8301126200039857600080fd5b8151620003af620003a9826200055c565b620004d8565b91508082526020830160208301858383011115620003cc57600080fd5b620003d983828462000593565b50505092915050565b600081519050620003f381620005c9565b92915050565b600080600080600080600060e0888a0312156200041557600080fd5b600088015167ffffffffffffffff8111156200043057600080fd5b6200043e8a828b0162000386565b9750506020620004518a828b01620003e2565b9650506040620004648a828b01620003e2565b9550506060620004778a828b01620003e2565b94505060806200048a8a828b01620003e2565b93505060a06200049d8a828b01620003e2565b92505060c088015167ffffffffffffffff811115620004bb57600080fd5b620004c98a828b01620002ad565b91505092959891949750929550565b6000604051905081810181811067ffffffffffffffff82111715620004fc57600080fd5b8060405250919050565b600067ffffffffffffffff8211156200051e57600080fd5b602082029050602081019050919050565b600067ffffffffffffffff8211156200054757600080fd5b601f19601f8301169050602081019050919050565b600067ffffffffffffffff8211156200057457600080fd5b601f19601f8301169050602081019050919050565b6000819050919050565b60005b83811015620005b357808201518184015260208101905062000596565b83811115620005c3576000848401525b50505050565b620005d48162000589565b8114620005e057600080fd5b50565b61067b80620005f36000396000f3fe608060405234801561001057600080fd5b50600436106100885760003560e01c8063552410771161005b5780635524107714610103578063557ed1ba1461011f57806382678dd61461013e5780638da5cb5b1461015d57610088565b80630121b93f1461008d57806320965255146100a95780633783ac1d146100c75780633fa4f245146100e5575b600080fd5b6100a760048036036100a29190810190610424565b61017b565b005b6100b1610236565b6040516100be9190610541565b60405180910390f35b6100cf610240565b6040516100dc91906104ff565b60405180910390f35b6100ed61036d565b6040516100fa9190610541565b60405180910390f35b61011d60048036036101189190810190610424565b610373565b005b6101276103bf565b60405161013592919061055c565b60405180910390f35b6101466103d0565b60405161015492919061055c565b60405180910390f35b6101656103e1565b60405161017291906104e4565b60405180910390f35b6000600760003373ffffffffffffffffffffffffffffffffffffffff1673ffffffffffffffffffffffffffffffffffffffff16815260200190815260200160002090506101c6610406565b610205576040517f08c379a00000000000000000000000000000000000000000000000000000000081526004016101fc90610521565b60405180910390fd5b60016008838154811061021457fe5b9060005260206000209060030201600001600082825401925050819055505050565b6000600954905090565b6060600080905060008090505b60088054905081101561036857816008828154811061026857fe5b906000526020600020906003020160000154111561035b576008818154811061028d57fe5b9060005260206000209060030201600001549150600881815481106102ae57fe5b90600052602060002090600302016001018054600181600116156101000203166002900480601f0160208091040260200160405190810160405280929190818152602001828054600181600116156101000203166002900480156103535780601f1061032857610100808354040283529160200191610353565b820191906000526020600020905b81548152906001019060200180831161033657829003601f168201915b505050505092505b808060010191505061024d565b505090565b60095481565b806009600082825401925050819055507f012c78e2b84325878b1bd9d250d772cfe5bda7722d795f45036fa5e1e6e303fc6009546040516103b49190610541565b60405180910390a150565b600080600354600454915091509091565b600080600554600654915091509091565b6000809054906101000a900473ffffffffffffffffffffffffffffffffffffffff1681565b60006001905090565b60008135905061041e81610621565b92915050565b60006020828403121561043657600080fd5b60006104448482850161040f565b91505092915050565b610456816105a1565b82525050565b600061046782610585565b6104718185610590565b93506104818185602086016105dd565b61048a81610610565b840191505092915050565b60006104a2601383610590565b91507f5369676e61747572652069732077726f6e672e000000000000000000000000006000830152602082019050919050565b6104de816105d3565b82525050565b60006020820190506104f9600083018461044d565b92915050565b60006020820190508181036000830152610519818461045c565b905092915050565b6000602082019050818103600083015261053a81610495565b9050919050565b600060208201905061055660008301846104d5565b92915050565b600060408201905061057160008301856104d5565b61057e60208301846104d5565b9392505050565b600081519050919050565b600082825260208201905092915050565b60006105ac826105b3565b9050919050565b600073ffffffffffffffffffffffffffffffffffffffff82169050919050565b6000819050919050565b60005b838110156105fb5780820151818401526020810190506105e0565b8381111561060a576000848401525b50505050565b6000601f19601f8301169050919050565b61062a816105d3565b811461063557600080fd5b5056fea365627a7a7231582072ac59aed9a81ef7ff7c520fae6394f80a63431b6326c65dcdcab44fe511d2636c6578706572696d656e74616cf564736f6c634300050c0040",
  "source": "pragma solidity >=0.4.25;\npragma experimental ABIEncoderV2;\n\ncontract Voting {\n    struct Voter {\n        uint id; // voter's id\n        bool voted; // whether the voter has voted or not\n        uint candidate; // the candidate that the voter votes for\n    }\n\n    struct Candidate {\n        uint count;\n        string name;\n        uint id;\n    }\n    address public owner;\n    string votingTitle;\n    uint votingID;\n    uint startTime;\n    uint endTime;\n    uint publicKeyE;\n    uint256 publicKeyN;\n    mapping (address => Voter) voters; // eligible voters\n    Candidate[] candidates; // eligible candidates\n    uint public value = 0;\n    event ValueSet(uint val);\n    function setValue(uint val) public {\n        value += val;\n        emit ValueSet(value);\n    }\n    function getValue() public view returns (uint) {\n        return value;\n    }\n    function getTime() public view returns (uint, uint) {\n        return (startTime, endTime);\n    }\n    function getKey() public view returns (uint, uint) {\n        return (publicKeyE, publicKeyN);\n    }\n\n    constructor (string memory _vT, uint _vID, uint _sT, uint _eT, uint E, uint256 N, string[] memory _can) public {\n        votingTitle = _vT;\n        votingID = _vID;\n        startTime = _sT;\n        endTime = _eT;\n        publicKeyE = E;\n        publicKeyN = N;\n        for (uint j = 0; j < _can.length; j++) {\n            candidates.push(Candidate({\n                count: 0,\n                name: _can[j],\n                id: j\n            }));\n        }\n        owner = msg.sender;\n    }\n\n    function vote (uint candidate) public {\n        Voter storage sender = voters[msg.sender];\n        require(verify(), \"Signature is wrong.\");\n        //require(!sender.voted, \"Sender has been voted.\");\n        //sender.voted = true;\n        //sender.candidate = candidate;\n        candidates[candidate].count += 1;\n\n    }\n\n    function verify () private returns (bool eligible) {\n        eligible = true;\n    }\n\n    function checkTime () private view returns (bool) {\n        if (now > endTime || now < startTime) return false;\n        else return true;\n    }\n\n    function checkVotingID (uint ballotID) private view returns (bool) {\n        if (ballotID != votingID) return false;\n        else return true;\n    }\n\n    function checkVoter (address _voterAddr) private view returns (bool) {\n        if (voters[_voterAddr].id == 0) return false;\n        else return true;\n    }\n\n    function collectVotes () public view returns (string memory winningCandidates) {\n        //require(now > endTime );\n        uint winningCount = 0;\n        for (uint i = 0; i < candidates.length; i++) {\n            if (candidates[i].count > winningCount) {\n                winningCount = candidates[i].count;\n                winningCandidates = candidates[i].name;\n            }\n        }\n    }\n}",
  "sourcePath": "/Users/aeiou335/Desktop/csie/crypto/smartvoting2/Vote/contracts/Voting.sol",
  "compiler": {
    "name": "solc",
    "version": "0.5.12+commit.7709ece9.Emscripten.clang"
  },
  "schemaVersion": "3.0.19",
  "updatedAt": "2020-01-10T21:24:14.734Z",
  "networkType": "ethereum",
  "devdoc": {
    "methods": {}
  },
  "userdoc": {
    "methods": {}
  }
}