{
  "contractName": "Voting",
  "abi": [
    {
      "inputs": [
        {
          "internalType": "string",
          "name": "_vT",
          "type": "string"
        },
        {
          "internalType": "uint256",
          "name": "_vID",
          "type": "uint256"
        },
        {
          "internalType": "uint256",
          "name": "_sT",
          "type": "uint256"
        },
        {
          "internalType": "uint256",
          "name": "_eT",
          "type": "uint256"
        },
        {
          "internalType": "uint256",
          "name": "E",
          "type": "uint256"
        },
        {
          "internalType": "bytes32",
          "name": "N",
          "type": "bytes32"
        },
        {
          "internalType": "string[]",
          "name": "_can",
          "type": "string[]"
        }
      ],
      "payable": false,
      "stateMutability": "nonpayable",
      "type": "constructor"
    },
    {
      "anonymous": false,
      "inputs": [
        {
          "indexed": false,
          "internalType": "uint256",
          "name": "val",
          "type": "uint256"
        }
      ],
      "name": "ValueSet",
      "type": "event"
    },
    {
      "constant": true,
      "inputs": [],
      "name": "owner",
      "outputs": [
        {
          "internalType": "address",
          "name": "",
          "type": "address"
        }
      ],
      "payable": false,
      "stateMutability": "view",
      "type": "function"
    },
    {
      "constant": true,
      "inputs": [],
      "name": "value",
      "outputs": [
        {
          "internalType": "uint256",
          "name": "",
          "type": "uint256"
        }
      ],
      "payable": false,
      "stateMutability": "view",
      "type": "function"
    },
    {
      "constant": false,
      "inputs": [
        {
          "internalType": "uint256",
          "name": "val",
          "type": "uint256"
        }
      ],
      "name": "setValue",
      "outputs": [],
      "payable": false,
      "stateMutability": "nonpayable",
      "type": "function"
    },
    {
      "constant": true,
      "inputs": [],
      "name": "getValue",
      "outputs": [
        {
          "internalType": "uint256",
          "name": "",
          "type": "uint256"
        }
      ],
      "payable": false,
      "stateMutability": "view",
      "type": "function"
    },
    {
      "constant": true,
      "inputs": [],
      "name": "getTime",
      "outputs": [
        {
          "internalType": "uint256",
          "name": "",
          "type": "uint256"
        },
        {
          "internalType": "uint256",
          "name": "",
          "type": "uint256"
        }
      ],
      "payable": false,
      "stateMutability": "view",
      "type": "function"
    },
    {
      "constant": true,
      "inputs": [],
      "name": "getKey",
      "outputs": [
        {
          "internalType": "uint256",
          "name": "",
          "type": "uint256"
        },
        {
          "internalType": "bytes32",
          "name": "",
          "type": "bytes32"
        }
      ],
      "payable": false,
      "stateMutability": "view",
      "type": "function"
    },
    {
      "constant": true,
      "inputs": [],
      "name": "getHash",
      "outputs": [
        {
          "internalType": "bytes32",
          "name": "",
          "type": "bytes32"
        },
        {
          "internalType": "bytes32",
          "name": "",
          "type": "bytes32"
        }
      ],
      "payable": false,
      "stateMutability": "view",
      "type": "function"
    },
    {
      "constant": true,
      "inputs": [],
      "name": "getTest",
      "outputs": [
        {
          "internalType": "uint256",
          "name": "",
          "type": "uint256"
        },
        {
          "internalType": "uint256",
          "name": "",
          "type": "uint256"
        }
      ],
      "payable": false,
      "stateMutability": "view",
      "type": "function"
    },
    {
      "constant": false,
      "inputs": [
        {
          "internalType": "string",
          "name": "message",
          "type": "string"
        },
        {
          "internalType": "bytes",
          "name": "signedMessage",
          "type": "bytes"
        }
      ],
      "name": "vote",
      "outputs": [],
      "payable": false,
      "stateMutability": "nonpayable",
      "type": "function"
    },
    {
      "constant": true,
      "inputs": [
        {
          "internalType": "uint256",
          "name": "_base",
          "type": "uint256"
        },
        {
          "internalType": "uint256",
          "name": "_exponent",
          "type": "uint256"
        },
        {
          "internalType": "uint256",
          "name": "_modulus",
          "type": "uint256"
        }
      ],
      "name": "modPow",
      "outputs": [
        {
          "internalType": "uint256",
          "name": "",
          "type": "uint256"
        }
      ],
      "payable": false,
      "stateMutability": "pure",
      "type": "function"
    },
    {
      "constant": false,
      "inputs": [
        {
          "internalType": "string",
          "name": "message",
          "type": "string"
        },
        {
          "internalType": "bytes",
          "name": "signedMessage",
          "type": "bytes"
        }
      ],
      "name": "verify",
      "outputs": [
        {
          "internalType": "bool",
          "name": "eligible",
          "type": "bool"
        }
      ],
      "payable": false,
      "stateMutability": "nonpayable",
      "type": "function"
    },
    {
      "constant": true,
      "inputs": [],
      "name": "collectVotes",
      "outputs": [
        {
          "internalType": "string",
          "name": "winningCandidate",
          "type": "string"
        }
      ],
      "payable": false,
      "stateMutability": "view",
      "type": "function"
    }
  ],
  "bytecode": "0x608060405260006008553480156200001657600080fd5b50604051620012ab380380620012ab83398181016040526200003c919081019062000410565b86600190805190602001906200005492919062000177565b50856002819055508460038190555083600481905550826005819055508160068190555060008090505b815181101562000129576007604051806060016040528060008152602001848481518110620000a957fe5b6020026020010151815260200183815250908060018154018082558091505090600182039060005260206000209060030201600090919290919091506000820151816000015560208201518160010190805190602001906200010d929190620001fe565b506040820151816002015550505080806001019150506200007e565b50336000806101000a81548173ffffffffffffffffffffffffffffffffffffffff021916908373ffffffffffffffffffffffffffffffffffffffff160217905550505050505050506200061e565b828054600181600116156101000203166002900490600052602060002090601f016020900481019282601f10620001ba57805160ff1916838001178555620001eb565b82800160010185558215620001eb579182015b82811115620001ea578251825591602001919060010190620001cd565b5b509050620001fa919062000285565b5090565b828054600181600116156101000203166002900490600052602060002090601f016020900481019282601f106200024157805160ff191683800117855562000272565b8280016001018555821562000272579182015b828111156200027157825182559160200191906001019062000254565b5b50905062000281919062000285565b5090565b620002aa91905b80821115620002a65760008160009055506001016200028c565b5090565b90565b600082601f830112620002bf57600080fd5b8151620002d6620002d0826200051d565b620004ef565b9150818183526020840193506020810190508360005b8381101562000320578151860162000305888262000341565b845260208401935060208301925050600181019050620002ec565b5050505092915050565b6000815190506200033b81620005ea565b92915050565b600082601f8301126200035357600080fd5b81516200036a620003648262000546565b620004ef565b915080825260208301602083018583830111156200038757600080fd5b62000394838284620005b4565b50505092915050565b600082601f830112620003af57600080fd5b8151620003c6620003c08262000573565b620004ef565b91508082526020830160208301858383011115620003e357600080fd5b620003f0838284620005b4565b50505092915050565b6000815190506200040a8162000604565b92915050565b600080600080600080600060e0888a0312156200042c57600080fd5b600088015167ffffffffffffffff8111156200044757600080fd5b620004558a828b016200039d565b9750506020620004688a828b01620003f9565b96505060406200047b8a828b01620003f9565b95505060606200048e8a828b01620003f9565b9450506080620004a18a828b01620003f9565b93505060a0620004b48a828b016200032a565b92505060c088015167ffffffffffffffff811115620004d257600080fd5b620004e08a828b01620002ad565b91505092959891949750929550565b6000604051905081810181811067ffffffffffffffff821117156200051357600080fd5b8060405250919050565b600067ffffffffffffffff8211156200053557600080fd5b602082029050602081019050919050565b600067ffffffffffffffff8211156200055e57600080fd5b601f19601f8301169050602081019050919050565b600067ffffffffffffffff8211156200058b57600080fd5b601f19601f8301169050602081019050919050565b6000819050919050565b6000819050919050565b60005b83811015620005d4578082015181840152602081019050620005b7565b83811115620005e4576000848401525b50505050565b620005f581620005a0565b81146200060157600080fd5b50565b6200060f81620005aa565b81146200061b57600080fd5b50565b610c7d806200062e6000396000f3fe608060405234801561001057600080fd5b50600436106100b45760003560e01c8063557ed1ba11610071578063557ed1ba1461017b57806382678dd61461019a5780638da5cb5b146101b9578063a8cd0a80146101d7578063d13319c4146101f6578063edbe2fbd14610215576100b4565b806320965255146100b95780633783ac1d146100d75780633d9ffad5146100f55780633fa4f2451461012557806347a1d34a14610143578063552410771461015f575b600080fd5b6100c1610245565b6040516100ce9190610a23565b60405180910390f35b6100df61024f565b6040516100ec9190610a01565b60405180910390f35b61010f600480360361010a9190810190610714565b61037f565b60405161011c91906109bd565b60405180910390f35b61012d610426565b60405161013a9190610a23565b60405180910390f35b61015d60048036036101589190810190610714565b61042c565b005b61017960048036036101749190810190610780565b610500565b005b61018361054c565b604051610191929190610a67565b60405180910390f35b6101a261055d565b6040516101b0929190610a3e565b60405180910390f35b6101c161056e565b6040516101ce91906109a2565b60405180910390f35b6101df610593565b6040516101ed929190610a67565b60405180910390f35b6101fe6105a4565b60405161020c9291906109d8565b60405180910390f35b61022f600480360361022a91908101906107a9565b6105b5565b60405161023c9190610a23565b60405180910390f35b6000600854905090565b6060600080905060008090505b60078054905081101561037757816007828154811061027757fe5b906000526020600020906003020160000154111561036a576007818154811061029c57fe5b9060005260206000209060030201600001549150600781815481106102bd57fe5b90600052602060002090600302016001018054600181600116156101000203166002900480601f0160208091040260200160405190810160405280929190818152602001828054600181600116156101000203166002900480156103625780601f1061033757610100808354040283529160200191610362565b820191906000526020600020905b81548152906001019060200180831161034557829003601f168201915b505050505092505b808060010191505061025c565b508191505090565b6000600283604051610391919061095d565b602060405180830381855afa1580156103ae573d6000803e3d6000fd5b5050506040513d601f19601f820116820180604052506103d191908101906106eb565b60098190555060006103f56103e7846000610603565b60055460065460001c6105b5565b90508060001b600a819055506009548160001b1415610417576001915061041c565b600091505b8191505092915050565b60085481565b610436828261037f565b156104fc5760008090505b6007805490508110156104fa576007818154811061045b57fe5b906000526020600020906003020160010160405160200161047c919061098b565b60405160208183030381529060405280519060200120836040516020016104a39190610974565b6040516020818303038152906040528051906020012014156104ed576001600782815481106104ce57fe5b9060005260206000209060030201600001600082825401925050819055505b8080600101915050610441565b505b5050565b806008600082825401925050819055507f012c78e2b84325878b1bd9d250d772cfe5bda7722d795f45036fa5e1e6e303fc6008546040516105419190610a23565b60405180910390a150565b600080600354600454915091509091565b600080600554600654915091509091565b6000809054906101000a900473ffffffffffffffffffffffffffffffffffffffff1681565b600080600b54600c54915091509091565b600080600954600a54915091509091565b600080600190505b60008411156105f857600180851614156105df5782806105d957fe5b85820990505b600184901c935082806105ee57fe5b85860994506105bd565b809150509392505050565b6000808260200184015190508091505092915050565b60008151905061062881610c0c565b92915050565b600082601f83011261063f57600080fd5b813561065261064d82610abd565b610a90565b9150808252602083016020830185838301111561066e57600080fd5b610679838284610bb9565b50505092915050565b600082601f83011261069357600080fd5b81356106a66106a182610ae9565b610a90565b915080825260208301602083018583830111156106c257600080fd5b6106cd838284610bb9565b50505092915050565b6000813590506106e581610c23565b92915050565b6000602082840312156106fd57600080fd5b600061070b84828501610619565b91505092915050565b6000806040838503121561072757600080fd5b600083013567ffffffffffffffff81111561074157600080fd5b61074d85828601610682565b925050602083013567ffffffffffffffff81111561076a57600080fd5b6107768582860161062e565b9150509250929050565b60006020828403121561079257600080fd5b60006107a0848285016106d6565b91505092915050565b6000806000606084860312156107be57600080fd5b60006107cc868287016106d6565b93505060206107dd868287016106d6565b92505060406107ee868287016106d6565b9150509250925092565b61080181610b67565b82525050565b61081081610b79565b82525050565b61081f81610b85565b82525050565b600061083082610b2a565b61083a8185610b40565b935061084a818560208601610bc8565b80840191505092915050565b600061086182610b35565b61086b8185610b4b565b935061087b818560208601610bc8565b61088481610bfb565b840191505092915050565b600061089a82610b35565b6108a48185610b5c565b93506108b4818560208601610bc8565b80840191505092915050565b6000815460018116600081146108dd576001811461090257610946565b607f60028304166108ee8187610b5c565b955060ff1983168652808601935050610946565b600282046109108187610b5c565b955061091b85610b15565b60005b8281101561093d5781548189015260018201915060208101905061091e565b82880195505050505b505092915050565b61095781610baf565b82525050565b60006109698284610825565b915081905092915050565b6000610980828461088f565b915081905092915050565b600061099782846108c0565b915081905092915050565b60006020820190506109b760008301846107f8565b92915050565b60006020820190506109d26000830184610807565b92915050565b60006040820190506109ed6000830185610816565b6109fa6020830184610816565b9392505050565b60006020820190508181036000830152610a1b8184610856565b905092915050565b6000602082019050610a38600083018461094e565b92915050565b6000604082019050610a53600083018561094e565b610a606020830184610816565b9392505050565b6000604082019050610a7c600083018561094e565b610a89602083018461094e565b9392505050565b6000604051905081810181811067ffffffffffffffff82111715610ab357600080fd5b8060405250919050565b600067ffffffffffffffff821115610ad457600080fd5b601f19601f8301169050602081019050919050565b600067ffffffffffffffff821115610b0057600080fd5b601f19601f8301169050602081019050919050565b60008190508160005260206000209050919050565b600081519050919050565b600081519050919050565b600081905092915050565b600082825260208201905092915050565b600081905092915050565b6000610b7282610b8f565b9050919050565b60008115159050919050565b6000819050919050565b600073ffffffffffffffffffffffffffffffffffffffff82169050919050565b6000819050919050565b82818337600083830152505050565b60005b83811015610be6578082015181840152602081019050610bcb565b83811115610bf5576000848401525b50505050565b6000601f19601f8301169050919050565b610c1581610b85565b8114610c2057600080fd5b50565b610c2c81610baf565b8114610c3757600080fd5b5056fea365627a7a723158205677b89d82ce0b55cc9250bf3a35a5199f7e147e58b815ef474eb4f91f3f8c786c6578706572696d656e74616cf564736f6c634300050c0040",
  "source": "pragma solidity >=0.4.25;\npragma experimental ABIEncoderV2;\n\ncontract Voting {\n\n    struct Candidate {\n        uint count;\n        string name;\n        uint id;\n    }\n    address public owner;\n    string votingTitle;\n    uint votingID;\n    uint startTime;\n    uint endTime;\n    uint publicKeyE;\n    bytes32 publicKeyN;\n    Candidate[] candidates; // eligible candidates\n    uint public value = 0;\n    bytes32 msgHash;\n    bytes32 verifyHash;\n    uint testString;\n    uint testmsg;\n    event ValueSet(uint val);\n    function setValue(uint val) public {\n        value += val;\n        emit ValueSet(value);\n    }\n    function getValue() public view returns (uint) {\n        return value;\n    }\n    function getTime() public view returns (uint, uint) {\n        return (startTime, endTime);\n    }\n    function getKey() public view returns (uint, bytes32) {\n        return (publicKeyE, publicKeyN);\n    }\n    function getHash() public view returns(bytes32, bytes32){\n        return (msgHash, verifyHash);\n    }\n    function getTest() public view returns (uint, uint) {\n        return (testString, testmsg);\n    }\n\n    constructor (string memory _vT, uint _vID, uint _sT, uint _eT, uint E, bytes32 N, string[] memory _can) public {\n        votingTitle = _vT;\n        votingID = _vID;\n        startTime = _sT;\n        endTime = _eT;\n        publicKeyE = E;\n        publicKeyN = N;\n        for (uint j = 0; j < _can.length; j++) {\n            candidates.push(Candidate({\n                count: 0,\n                name: _can[j],\n                id: j\n            }));\n        }\n        owner = msg.sender;\n    }\n\n    function vote (string memory message, bytes memory signedMessage) public {\n        if (verify(message, signedMessage)){\n            for (uint i = 0; i < candidates.length; i++) {\n                if (keccak256(abi.encodePacked((message))) == keccak256(abi.encodePacked((candidates[i].name)))) {\n                    candidates[i].count += 1;\n                }\n            }\n        }\n    }\n    function modPow(uint _base, uint _exponent, uint _modulus) public pure returns(uint) {\n        uint result;\n        result = 1;\n        while(_exponent > 0){\n            if((_exponent & 1) == 1) result = mulmod(result, _base, _modulus);\n            _exponent = _exponent >> 1;\n            _base = mulmod(_base, _base, _modulus);\n        }\n        return result;\n    }\n    function sliceUint(bytes memory bs, uint start) internal pure returns (uint) {\n        uint x;\n        assembly {\n            x := mload(add(bs, add(0x20, start)))\n        }\n        return x;\n    }\n\n    function verify (string memory message, bytes memory signedMessage) public returns (bool eligible) {\n        msgHash = sha256(bytes(message));\n        uint result = modPow(sliceUint(signedMessage,0), publicKeyE, uint(publicKeyN));\n        verifyHash = bytes32(result);\n        if (bytes32(result) == msgHash) eligible = true;\n        else eligible = false;\n        return eligible;\n    }\n    function checkTime () private view returns (bool) {\n        if (now > endTime || now < startTime) return false;\n        else return true;\n    }\n\n    function checkVotingID (uint ballotID) private view returns (bool) {\n        if (ballotID != votingID) return false;\n        else return true;\n    }\n\n    function collectVotes () public view returns (string memory winningCandidate) {\n        //require(now > endTime ); string memory winningCandidate\n        uint winningCount = 0;\n        for (uint i = 0; i < candidates.length; i++) {\n            if (candidates[i].count > winningCount) {\n                winningCount = candidates[i].count;\n                winningCandidate = candidates[i].name;\n            }\n        }\n        return winningCandidate;\n        //return candidates[0].count;\n    }\n}\n",
  "sourcePath": "/Users/aeiou335/Desktop/csie/crypto/smartvoting2/Vote/contracts/Voting.sol",
  "compiler": {
    "name": "solc",
    "version": "0.5.12+commit.7709ece9.Emscripten.clang"
  },
  "schemaVersion": "3.0.19",
  "updatedAt": "2020-01-12T20:20:47.818Z",
  "networkType": "ethereum",
  "devdoc": {
    "methods": {}
  },
  "userdoc": {
    "methods": {}
  }
}