{
  "contractName": "Voting",
  "abi": [
    {
      "inputs": [
        {
          "internalType": "string",
          "name": "_vT",
          "type": "string"
        },
        {
          "internalType": "uint256",
          "name": "_vID",
          "type": "uint256"
        },
        {
          "internalType": "uint256",
          "name": "_sT",
          "type": "uint256"
        },
        {
          "internalType": "uint256",
          "name": "_eT",
          "type": "uint256"
        },
        {
          "internalType": "uint256",
          "name": "E",
          "type": "uint256"
        },
        {
          "internalType": "bytes32",
          "name": "N",
          "type": "bytes32"
        },
        {
          "internalType": "string[]",
          "name": "_can",
          "type": "string[]"
        }
      ],
      "payable": false,
      "stateMutability": "nonpayable",
      "type": "constructor"
    },
    {
      "anonymous": false,
      "inputs": [
        {
          "indexed": false,
          "internalType": "uint256",
          "name": "val",
          "type": "uint256"
        }
      ],
      "name": "ValueSet",
      "type": "event"
    },
    {
      "constant": true,
      "inputs": [],
      "name": "owner",
      "outputs": [
        {
          "internalType": "address",
          "name": "",
          "type": "address"
        }
      ],
      "payable": false,
      "stateMutability": "view",
      "type": "function"
    },
    {
      "constant": true,
      "inputs": [],
      "name": "value",
      "outputs": [
        {
          "internalType": "uint256",
          "name": "",
          "type": "uint256"
        }
      ],
      "payable": false,
      "stateMutability": "view",
      "type": "function"
    },
    {
      "constant": false,
      "inputs": [
        {
          "internalType": "uint256",
          "name": "val",
          "type": "uint256"
        }
      ],
      "name": "setValue",
      "outputs": [],
      "payable": false,
      "stateMutability": "nonpayable",
      "type": "function"
    },
    {
      "constant": true,
      "inputs": [],
      "name": "getValue",
      "outputs": [
        {
          "internalType": "uint256",
          "name": "",
          "type": "uint256"
        }
      ],
      "payable": false,
      "stateMutability": "view",
      "type": "function"
    },
    {
      "constant": true,
      "inputs": [],
      "name": "getTime",
      "outputs": [
        {
          "internalType": "uint256",
          "name": "",
          "type": "uint256"
        },
        {
          "internalType": "uint256",
          "name": "",
          "type": "uint256"
        }
      ],
      "payable": false,
      "stateMutability": "view",
      "type": "function"
    },
    {
      "constant": true,
      "inputs": [],
      "name": "getKey",
      "outputs": [
        {
          "internalType": "uint256",
          "name": "",
          "type": "uint256"
        },
        {
          "internalType": "bytes32",
          "name": "",
          "type": "bytes32"
        }
      ],
      "payable": false,
      "stateMutability": "view",
      "type": "function"
    },
    {
      "constant": true,
      "inputs": [],
      "name": "getHash",
      "outputs": [
        {
          "internalType": "bytes32",
          "name": "",
          "type": "bytes32"
        },
        {
          "internalType": "bytes32",
          "name": "",
          "type": "bytes32"
        }
      ],
      "payable": false,
      "stateMutability": "view",
      "type": "function"
    },
    {
      "constant": false,
      "inputs": [
        {
          "internalType": "uint256",
          "name": "candidate",
          "type": "uint256"
        }
      ],
      "name": "vote",
      "outputs": [],
      "payable": false,
      "stateMutability": "nonpayable",
      "type": "function"
    },
    {
      "constant": true,
      "inputs": [
        {
          "internalType": "uint256",
          "name": "_base",
          "type": "uint256"
        },
        {
          "internalType": "uint256",
          "name": "_exponent",
          "type": "uint256"
        },
        {
          "internalType": "uint256",
          "name": "_modulus",
          "type": "uint256"
        }
      ],
      "name": "modPow",
      "outputs": [
        {
          "internalType": "uint256",
          "name": "",
          "type": "uint256"
        }
      ],
      "payable": false,
      "stateMutability": "pure",
      "type": "function"
    },
    {
      "constant": false,
      "inputs": [
        {
          "internalType": "string",
          "name": "message",
          "type": "string"
        },
        {
          "internalType": "string",
          "name": "signedMessage",
          "type": "string"
        }
      ],
      "name": "verify",
      "outputs": [
        {
          "internalType": "bool",
          "name": "eligible",
          "type": "bool"
        }
      ],
      "payable": false,
      "stateMutability": "nonpayable",
      "type": "function"
    },
    {
      "constant": true,
      "inputs": [],
      "name": "collectVotes",
      "outputs": [
        {
          "internalType": "string",
          "name": "winningCandidates",
          "type": "string"
        }
      ],
      "payable": false,
      "stateMutability": "view",
      "type": "function"
    }
  ],
  "bytecode": "0x608060405260006008553480156200001657600080fd5b50604051620010e1380380620010e183398181016040526200003c919081019062000410565b86600190805190602001906200005492919062000177565b50856002819055508460038190555083600481905550826005819055508160068190555060008090505b815181101562000129576007604051806060016040528060008152602001848481518110620000a957fe5b6020026020010151815260200183815250908060018154018082558091505090600182039060005260206000209060030201600090919290919091506000820151816000015560208201518160010190805190602001906200010d929190620001fe565b506040820151816002015550505080806001019150506200007e565b50336000806101000a81548173ffffffffffffffffffffffffffffffffffffffff021916908373ffffffffffffffffffffffffffffffffffffffff160217905550505050505050506200061e565b828054600181600116156101000203166002900490600052602060002090601f016020900481019282601f10620001ba57805160ff1916838001178555620001eb565b82800160010185558215620001eb579182015b82811115620001ea578251825591602001919060010190620001cd565b5b509050620001fa919062000285565b5090565b828054600181600116156101000203166002900490600052602060002090601f016020900481019282601f106200024157805160ff191683800117855562000272565b8280016001018555821562000272579182015b828111156200027157825182559160200191906001019062000254565b5b50905062000281919062000285565b5090565b620002aa91905b80821115620002a65760008160009055506001016200028c565b5090565b90565b600082601f830112620002bf57600080fd5b8151620002d6620002d0826200051d565b620004ef565b9150818183526020840193506020810190508360005b8381101562000320578151860162000305888262000341565b845260208401935060208301925050600181019050620002ec565b5050505092915050565b6000815190506200033b81620005ea565b92915050565b600082601f8301126200035357600080fd5b81516200036a620003648262000546565b620004ef565b915080825260208301602083018583830111156200038757600080fd5b62000394838284620005b4565b50505092915050565b600082601f830112620003af57600080fd5b8151620003c6620003c08262000573565b620004ef565b91508082526020830160208301858383011115620003e357600080fd5b620003f0838284620005b4565b50505092915050565b6000815190506200040a8162000604565b92915050565b600080600080600080600060e0888a0312156200042c57600080fd5b600088015167ffffffffffffffff8111156200044757600080fd5b620004558a828b016200039d565b9750506020620004688a828b01620003f9565b96505060406200047b8a828b01620003f9565b95505060606200048e8a828b01620003f9565b9450506080620004a18a828b01620003f9565b93505060a0620004b48a828b016200032a565b92505060c088015167ffffffffffffffff811115620004d257600080fd5b620004e08a828b01620002ad565b91505092959891949750929550565b6000604051905081810181811067ffffffffffffffff821117156200051357600080fd5b8060405250919050565b600067ffffffffffffffff8211156200053557600080fd5b602082029050602081019050919050565b600067ffffffffffffffff8211156200055e57600080fd5b601f19601f8301169050602081019050919050565b600067ffffffffffffffff8211156200058b57600080fd5b601f19601f8301169050602081019050919050565b6000819050919050565b6000819050919050565b60005b83811015620005d4578082015181840152602081019050620005b7565b83811115620005e4576000848401525b50505050565b620005f581620005a0565b81146200060157600080fd5b50565b6200060f81620005aa565b81146200061b57600080fd5b50565b610ab3806200062e6000396000f3fe608060405234801561001057600080fd5b50600436106100a95760003560e01c8063557ed1ba11610071578063557ed1ba1461014057806382678dd61461015f5780638da5cb5b1461017e5780639deb17f51461019c578063d13319c4146101cc578063edbe2fbd146101eb576100a9565b80630121b93f146100ae57806320965255146100ca5780633783ac1d146100e85780633fa4f245146101065780635524107714610124575b600080fd5b6100c860048036036100c3919081019061068f565b61021b565b005b6100d261024b565b6040516100df91906108a5565b60405180910390f35b6100f0610255565b6040516100fd9190610863565b60405180910390f35b61010e610382565b60405161011b91906108a5565b60405180910390f35b61013e6004803603610139919081019061068f565b610388565b005b6101486103d4565b6040516101569291906108e9565b60405180910390f35b6101676103e5565b6040516101759291906108c0565b60405180910390f35b6101866103f6565b6040516101939190610804565b60405180910390f35b6101b660048036036101b19190810190610623565b61041b565b6040516101c3919061081f565b60405180910390f35b6101d46104bf565b6040516101e292919061083a565b60405180910390f35b610205600480360361020091908101906106b8565b6104d0565b60405161021291906108a5565b60405180910390f35b60016007828154811061022a57fe5b90600052602060002090600302016000016000828254019250508190555050565b6000600854905090565b6060600080905060008090505b60078054905081101561037d57816007828154811061027d57fe5b906000526020600020906003020160000154111561037057600781815481106102a257fe5b9060005260206000209060030201600001549150600781815481106102c357fe5b90600052602060002090600302016001018054600181600116156101000203166002900480601f0160208091040260200160405190810160405280929190818152602001828054600181600116156101000203166002900480156103685780601f1061033d57610100808354040283529160200191610368565b820191906000526020600020905b81548152906001019060200180831161034b57829003601f168201915b505050505092505b8080600101915050610262565b505090565b60085481565b806008600082825401925050819055507f012c78e2b84325878b1bd9d250d772cfe5bda7722d795f45036fa5e1e6e303fc6008546040516103c991906108a5565b60405180910390a150565b600080600354600454915091509091565b600080600554600654915091509091565b6000809054906101000a900473ffffffffffffffffffffffffffffffffffffffff1681565b600060028360405161042d91906107ed565b602060405180830381855afa15801561044a573d6000803e3d6000fd5b5050506040513d601f19601f8201168201806040525061046d91908101906105fa565b600981905550600061049161048384600061051e565b60055460065460001c6104d0565b90508060001b600a819055506009548160001b14156104b357600191506104b8565b600091505b5092915050565b600080600954600a54915091509091565b600080600190505b600084111561051357600180851614156104fa5782806104f457fe5b85820990505b600184901c9350828061050957fe5b85860994506104d8565b809150509392505050565b60006020820183511015610567576040517f08c379a000000000000000000000000000000000000000000000000000000000815260040161055e90610885565b60405180910390fd5b60008260200184015190508091505092915050565b60008151905061058b81610a42565b92915050565b600082601f8301126105a257600080fd5b81356105b56105b08261093f565b610912565b915080825260208301602083018583830111156105d157600080fd5b6105dc8382846109ef565b50505092915050565b6000813590506105f481610a59565b92915050565b60006020828403121561060c57600080fd5b600061061a8482850161057c565b91505092915050565b6000806040838503121561063657600080fd5b600083013567ffffffffffffffff81111561065057600080fd5b61065c85828601610591565b925050602083013567ffffffffffffffff81111561067957600080fd5b61068585828601610591565b9150509250929050565b6000602082840312156106a157600080fd5b60006106af848285016105e5565b91505092915050565b6000806000606084860312156106cd57600080fd5b60006106db868287016105e5565b93505060206106ec868287016105e5565b92505060406106fd868287016105e5565b9150509250925092565b6107108161099d565b82525050565b61071f816109af565b82525050565b61072e816109bb565b82525050565b600061073f8261096b565b6107498185610981565b93506107598185602086016109fe565b80840191505092915050565b600061077082610976565b61077a818561098c565b935061078a8185602086016109fe565b61079381610a31565b840191505092915050565b60006107ab60148361098c565b91507f736c6963696e67206f7574206f662072616e67650000000000000000000000006000830152602082019050919050565b6107e7816109e5565b82525050565b60006107f98284610734565b915081905092915050565b60006020820190506108196000830184610707565b92915050565b60006020820190506108346000830184610716565b92915050565b600060408201905061084f6000830185610725565b61085c6020830184610725565b9392505050565b6000602082019050818103600083015261087d8184610765565b905092915050565b6000602082019050818103600083015261089e8161079e565b9050919050565b60006020820190506108ba60008301846107de565b92915050565b60006040820190506108d560008301856107de565b6108e26020830184610725565b9392505050565b60006040820190506108fe60008301856107de565b61090b60208301846107de565b9392505050565b6000604051905081810181811067ffffffffffffffff8211171561093557600080fd5b8060405250919050565b600067ffffffffffffffff82111561095657600080fd5b601f19601f8301169050602081019050919050565b600081519050919050565b600081519050919050565b600081905092915050565b600082825260208201905092915050565b60006109a8826109c5565b9050919050565b60008115159050919050565b6000819050919050565b600073ffffffffffffffffffffffffffffffffffffffff82169050919050565b6000819050919050565b82818337600083830152505050565b60005b83811015610a1c578082015181840152602081019050610a01565b83811115610a2b576000848401525b50505050565b6000601f19601f8301169050919050565b610a4b816109bb565b8114610a5657600080fd5b50565b610a62816109e5565b8114610a6d57600080fd5b5056fea365627a7a72315820464cea4be05f214909fc29c57b74b61111553258309b111ea17f42d54fb766476c6578706572696d656e74616cf564736f6c634300050c0040",
  "source": "pragma solidity >=0.4.25;\npragma experimental ABIEncoderV2;\n\ncontract Voting {\n\n    struct Candidate {\n        uint count;\n        string name;\n        uint id;\n    }\n    address public owner;\n    string votingTitle;\n    uint votingID;\n    uint startTime;\n    uint endTime;\n    uint publicKeyE;\n    bytes32 publicKeyN;\n    Candidate[] candidates; // eligible candidates\n    uint public value = 0;\n    bytes32 msgHash;\n    bytes32 verifyHash;\n    uint testString;\n    uint testmsg;\n    event ValueSet(uint val);\n    function setValue(uint val) public {\n        value += val;\n        emit ValueSet(value);\n    }\n    function getValue() public view returns (uint) {\n        return value;\n    }\n    function getTime() public view returns (uint, uint) {\n        return (startTime, endTime);\n    }\n    function getKey() public view returns (uint, bytes32) {\n        return (publicKeyE, publicKeyN);\n    }\n    function getHash() public view returns(bytes32, bytes32){\n        return (msgHash, verifyHash);\n    }\n    //function getTest() public view returns (uint, uint) {\n    //    return (testString, testmsg);\n    //}\n\n    constructor (string memory _vT, uint _vID, uint _sT, uint _eT, uint E, bytes32 N, string[] memory _can) public {\n        votingTitle = _vT;\n        votingID = _vID;\n        startTime = _sT;\n        endTime = _eT;\n        publicKeyE = E;\n        publicKeyN = N;\n        for (uint j = 0; j < _can.length; j++) {\n            candidates.push(Candidate({\n                count: 0,\n                name: _can[j],\n                id: j\n            }));\n        }\n        owner = msg.sender;\n    }\n\n    function vote (uint candidate) public {\n        //require(verify(), \"Signature is wrong.\");\n        //require(!sender.voted, \"Sender has been voted.\");\n        //sender.voted = true;\n        //sender.candidate = candidate;\n        candidates[candidate].count += 1;\n\n    }\n    \n    function modPow(uint _base, uint _exponent, uint _modulus) public pure returns(uint) {\n        uint result;\n        result = 1;\n        while(_exponent > 0){\n            if((_exponent & 1) == 1) result = mulmod(result, _base, _modulus);\n            _exponent = _exponent >> 1;\n            _base = mulmod(_base, _base, _modulus);\n        }\n        return result;\n    }\n    function sliceUint(bytes memory bs, uint start) internal pure returns (uint) {\n        require(bs.length >= start + 32, \"slicing out of range\");\n        uint x;\n        assembly {\n            x := mload(add(bs, add(0x20, start)))\n        }\n        return x;\n    }\n    function verify (string memory message, string memory signedMessage) public returns (bool eligible) {\n        msgHash = sha256(bytes(message));\n        uint result = modPow(sliceUint(bytes(signedMessage), 0), publicKeyE, uint(publicKeyN));\n        verifyHash = bytes32(result);\n        if (bytes32(result) == msgHash) eligible = true;\n        else eligible = false;\n    }\n\n    function checkTime () private view returns (bool) {\n        if (now > endTime || now < startTime) return false;\n        else return true;\n    }\n\n    function checkVotingID (uint ballotID) private view returns (bool) {\n        if (ballotID != votingID) return false;\n        else return true;\n    }\n\n    function collectVotes () public view returns (string memory winningCandidates) {\n        //require(now > endTime );\n        uint winningCount = 0;\n        for (uint i = 0; i < candidates.length; i++) {\n            if (candidates[i].count > winningCount) {\n                winningCount = candidates[i].count;\n                winningCandidates = candidates[i].name;\n            }\n        }\n    }\n}\n",
  "sourcePath": "/Users/aeiou335/Desktop/csie/crypto/smartvoting2/Vote/contracts/Voting.sol",
  "compiler": {
    "name": "solc",
    "version": "0.5.12+commit.7709ece9.Emscripten.clang"
  },
  "schemaVersion": "3.0.19",
  "updatedAt": "2020-01-12T13:53:44.300Z",
  "networkType": "ethereum",
  "devdoc": {
    "methods": {}
  },
  "userdoc": {
    "methods": {}
  }
}